:03000000020006F5
:20005F009010007431F0901001746FF0901002747AF090100374E6F090100474E5F09010DE
:20007F000574BCF09010067477F090100774A6F090100874F8F09010097466F090100A7475
:20009F009EF090100B743BF090100C7402F090100D74F4F090100E74DFF090100F7432F01C
:2000BF0090101074C8F090101174A7F090101274B9F0901013742AF0901014741EF09010A3
:2000DF001574BCF09010167408F090101774BEF09010187486F09010197411F090101A74D3
:2000FF00DEF090101B742AF090101C74CFF090101D74E8F090101E7488F090101F748EF077
:20011F00901020743BF0901021745CF0901022746AF09010237471F09010247447F09010A9
:20013F0025743CF09010267445F09010277405F09010287446F090102974E4F090102A747B
:20015F00ADF090102B7493F090102C7442F090102D741FF090102E7477F090102F74DCF0A7
:20017F009010307425F09010317497F09010327470F090103374E1F090103474B5F09010F0
:20019F003574EBF09010367489F0901037747FF090103874A9F0901039741EF090103A74B1
:2001BF0050F090103B741DF090103C7433F090103D7499F090103E743CF090103F7409F06D
:2001DF009010407468F090104174E4F0901042741AF090104374CFF090104474B0F090101D
:2001FF0045741EF090104674BAF09010477456F09010487424F0901049747CF090104A74DD
:20021F008EF090104B7435F090104C7484F090104D74E0F090104E74AAF090104F742DF03C
:20023F0090105074ECF09010517458F090105274A0F0901053744DF09010547489F0901097
:20025F0055748AF09010567402F09010577427F09010587438F09010597454F090105A74AB
:20027F002EF090105B744FF090105C74B2F090105D7496F090105E74ABF090105F7429F0F1
:20029F009010607401F09010617421F09010627407F090106374F9F09010647485F09010FA
:2002BF00657401F09010667499F090106774E7F090106874FEF090106974F8F090106A74B3
:2002DF009AF090106B7419F090106C746DF090106D7492F090106E7487F090106F7468F039
:2002FF00901070740EF09010717445F090107274B0F090107374CFF090107474D9F0901046
:20031F0075743DF090107674A5F09010777436F0901078742CF09010797498F090107A748D
:20033F00D3F090107B740EF090107C74D6F090107D74B4F090107E74D3F090107F74D1F01A
:20035F00901080E4F0901081F0901082F0901083F0901084E4F0901085F0901086F0901091
:20037F0087F0901088E4F0901089F090108AF090108BF090108CE4F090108DF090108EF062
:20039F0090108FF0901090E4F0901091F0901092F0901093F0901094E4F0901095F09010E8
:2003BF0096F0901097F0901098E4F0901099F090109AF090109BF090109CE4F090109DF0AA
:2003DF0090109EF090109FF09010A0E4F09010A1F09010A2F09010A3F09010A4E4F090103F
:2003FF00A5F09010A6F09010A7F09010A8E4F09010A9F09010AAF09010ABF09010ACE4F0F2
:20041F009010ADF09010AEF09010AFF09010B0E4F09010B1F09010B2F09010B3F09010B4C5
:20043F00E4F09010B5F09010B6F09010B7F09010B8E4F09010B9F09010BAF09010BBF0905D
:20045F0010BCE4F09010BDF09010BEF09010BFF09010C0E4F09010C1F09010C2F09010C3B9
:20047F00F09010C4E4F09010C5F09010C6F09010C7F09010C8E4F09010C9F09010CAF090B4
:20049F0010CBF09010CCE4F09010CDF09010CEF09010CFF09010D0E4F09010D1F09010D201
:2004BF00F09010D3F09010D4E4F09010D5F09010D6F09010D7F09010D8E4F09010D9F0900B
:2004DF0010DAF09010DBF09010DCE4F09010DDF09010DEF09010DFF09010E0E4F09010E149
:2004FF00F09010E2F09010E3F09010E4E4F09010E5F09010E6F09010E7F09010E8E4F09062
:20051F0010E9F09010EAF09010EBF09010ECE4F09010EDF09010EEF09010EFF09010F0E490
:20053F00F09010F1F09010F2F09010F3F09010F4E4F09010F5F09010F6F09010F7F090108C
:20055F00F8E4F09010F9F09010FAF09010FBF09010FCE4F09010FDF09010FEF09010FFF0F8
:20057F0090110074C8F090110174F6F09011027432F0901103749DF090110474E1F090112A
:20059F00057461F090110674BDF0901107742FF090110874DAF090110974A1F090110A74BA
:2005BF001FF090110B7469F090110C74C7F090110D740BF090110E7456F090110F747EF0A4
:2005DF009011107426F0901111748BF0901112742DF090111374B8F090111474F3F090115F
:2005FF00157471F090111674BEF090111774DEF09011187422F09011197434F090111A745F
:20061F0038F090111B746BF090111C748BF090111D74B5F090111E7471F090111F7469F064
:20063F009011207439F09011217408F09011227403F09011237405F09011247494F090115A
:20065F002574B2F09011267491F0901127743FF09011287496F090112974C7F090112A7422
:20067F00B3F090112B74E4F090112C7448F090112D7425F090112E74F5F090112F74F7F081
:20069F0090113074B5F090113174D5F090113274D1F090113374F5F0901134741AF090111D
:2006BF00357406F09011367413F090113774E5F0901138749AF09011397481F090113A7428
:2006DF00D6F090113B74ADF090113C744CF090113D74D4F090113E746DF090113F742CF085
:2006FF009011407471F0901141741BF0901142744EF0901143745DF0901144744FF0901151
:20071F004574E0F0901146747DF090114774EAF090114874E9F09011497463F090114A74ED
:20073F0006F090114B7434F090114C744CF090114D74A6F090114E74A9F090114F74A9F092
:20075F00901150742AF0901151743FF09011527466F0901153741BF09011547451F09011EB
:20077F0055743BF09011567473F09011577444F09011587418F090115974FFF090115A74B7
:20079F00FEF090115B7430F090115C748BF090115D74EFF090115E7494F090115F744AF0DA
:2007BF00901160747DF0901161743FF09011627492F0901163748FF09011647423F0901176
:2007DF0065743DF09011667422F090116774CFF09011687407F0901169741AF090116A74B1
:2007FF0085F090116B74B7F090116C7476F090116D745FF090116E7403F090116F74BAF0E2
:20081F00901170744BF09011717456F090117274A1F09011737442F09011747429F0901118
:20083F00757421F09011767450F09011777498F090117874C9F090117974EDF090117A7480
:20085F00D9F090117B74EAF090117C7425F090117D7435F090117E74AFF090117F7424F00F
:20087F00901180E4F0901181F0901182F0901183F0901184E4F0901185F0901186F0901164
:20089F0087F0901188E4F0901189F090118AF090118BF090118CE4F090118DF090118EF036
:2008BF0090118FF0901190E4F0901191F0901192F0901193F0901194E4F0901195F09011BB
:2008DF0096F0901197F0901198E4F0901199F090119AF090119BF090119CE4F090119DF07E
:2008FF0090119EF090119FF09011A0E4F09011A1F09011A2F09011A3F09011A4E4F0901112
:20091F00A5F09011A6F09011A7F09011A8E4F09011A9F09011AAF09011ABF09011ACE4F0C5
:20093F009011ADF09011AEF09011AFF09011B0E4F09011B1F09011B2F09011B3F09011B498
:20095F00E4F09011B5F09011B6F09011B7F09011B8E4F09011B9F09011BAF09011BBF09031
:20097F0011BCE4F09011BDF09011BEF09011BFF09011C0E4F09011C1F09011C2F09011C38C
:20099F00F09011C4E4F09011C5F09011C6F09011C7F09011C8E4F09011C9F09011CAF09088
:2009BF0011CBF09011CCE4F09011CDF09011CEF09011CFF09011D0E4F09011D1F09011D2D4
:2009DF00F09011D3F09011D4E4F09011D5F09011D6F09011D7F09011D8E4F09011D9F090DF
:2009FF0011DAF09011DBF09011DCE4F09011DDF09011DEF09011DFF09011E0E4F09011E11C
:200A1F00F09011E2F09011E3F09011E4E4F09011E5F09011E6F09011E7F09011E8E4F09035
:200A3F0011E9F09011EAF09011EBF09011ECE4F09011EDF09011EEF09011EFF09011F0E463
:200A5F00F09011F1F09011F2F09011F3F09011F4E4F09011F5F09011F6F09011F7F090115F
:200A7F00F8E4F09011F9F09011FAF09011FBF09011FCE4F09011FDF09011FEF09011FFF0CC
:200A9F009012007450F09012017424F0901202746EF0901203740EF09012047444F0901239
:200ABF000574DDF090120674E3F09012077457F090120874EBF090120974B9F090120A749D
:200ADF00EFF090120B74CEF090120C74B4F090120D7410F090120E748DF090120F74BFF0DB
:200AFF0090121074C8F090121174EAF090121274C3F0901213E4F0901214740EF0901215B5
:200B1F0074CFF09012167452F0901217742DF09012187425F0901219749DF090121A748715
:200B3F00F090121B74A6F090121C741DF090121D744AF090121E74B5F090121F744DF09058
:200B5F0012207467F090122174BCF09012227485F090122374BAF09012247470F0901225A5
:200B7F007443F090122674C2F09012277481F090122874BDF0901229742FF090122A746426
:200B9F00F090122B7453F090122C74EDF090122D7432F090122E743CF090122F742DF090DC
:200BBF0012307431F09012317423F090123274CFF090123374D8F0901234740FF0901235AD
:200BDF0074E9F09012367413F09012377451F0901238742DF090123974F8F090123A74AC2E
:200BFF00F090123B7436F090123C74A6F090123D745DF090123E748FF090123F7470F090CF
:200C1F0012407422F09012417460F09012427482F09012437488F0901244748CF0901245DE
:200C3F0074E3F09012467443F0901247744AF0901248749FF09012497487F090124A740500
:200C5F00F090124B74EDF090124C74C9F090124D7413F090124E740AF090124F74BEF090C5
:200C7F00125074CFF0901251746FF09012527407F09012537441F09012547489F090125527
:200C9F00747AF090125674E8F090125774BDF090125874F1F090125974DDF090125A7433CB
:200CBF00F090125B7470F090125C7480F090125D74D0F090125E7410F090125F74A3F09033
:200CDF00126074D2F09012617425F090126274B3F090126374CCF0901264744CF0901265B4
:200CFF007462F09012667419F090126774BCF0901268747AF09012697492F090126A748B6D
:200D1F00F090126B7446F090126C74BCF090126D747AF090126E74F4F090126F74A7F090DE
:200D3F00127074C6F090127174F7F0901272741AF09012737476F090127474EEF09012757A
:200D5F00746EF090127674ACF09012777403F0901278744DF090127974AAF090127A743F37
:200D7F00F090127B74C9F090127C743EF090127D74E5F090127E7492F090127F74C8F090FF
:200D9F001280E4F0901281F0901282F0901283F0901284E4F0901285F0901286F090128740
:200DBF00F0901288E4F0901289F090128AF090128BF090128CE4F090128DF090128EF09001
:200DDF00128FF0901290E4F0901291F0901292F0901293F0901294E4F0901295F090129688
:200DFF00F0901297F0901298E4F0901299F090129AF090129BF090129CE4F090129DF09058
:200E1F00129EF090129FF09012A0E4F09012A1F09012A2F09012A3F09012A4E4F09012A5CF
:200E3F00F09012A6F09012A7F09012A8E4F09012A9F09012AAF09012ABF09012ACE4F090AE
:200E5F0012ADF09012AEF09012AFF09012B0E4F09012B1F09012B2F09012B3F09012B4E417
:200E7F00F09012B5F09012B6F09012B7F09012B8E4F09012B9F09012BAF09012BBF09012D7
:200E9F00BCE4F09012BDF09012BEF09012BFF09012C0E4F09012C1F09012C2F09012C3F081
:200EBF009012C4E4F09012C5F09012C6F09012C7F09012C8E4F09012C9F09012CAF090123A
:200EDF00CBF09012CCE4F09012CDF09012CEF09012CFF09012D0E4F09012D1F09012D2F0C9
:200EFF009012D3F09012D4E4F09012D5F09012D6F09012D7F09012D8E4F09012D9F0901291
:200F1F00DAF09012DBF09012DCE4F09012DDF09012DEF09012DFF09012E0E4F09012E1F010
:200F3F009012E2F09012E3F09012E4E4F09012E5F09012E6F09012E7F09012E8E4F09012E7
:200F5F00E9F09012EAF09012EBF09012ECE4F09012EDF09012EEF09012EFF09012F0E4F058
:200F7F009012F1F09012F2F09012F3F09012F4E4F09012F5F09012F6F09012F7F09012F82A
:200F9F00E4F09012F9F09012FAF09012FBF09012FCE4F09012FDF09012FEF09012FFF09008
:200FBF00130074CFF09013017490F09013027485F09013037419F0901304741AF0901305B6
:200FDF007443F09013067488F09013077459F09013087407F09013097499F090130A74610E
:200FFF00F090130B74C4F090130C74FDF090130D740BF090130E7420F090130F74CDF09035
:20101F0013107437F09013117458F09013127446F090131374D5F090131474E1F090131581
:20103F007443F090131674F7F09013177441F09013187479F090131974EEF090131A74217F
:20105F00F090131B74D5F090131C7430F090131D7417F090131E7477F090131F7471F09039
:20107F00132074C4F090132174A3F09013227495F0901323748EF090132474B8F09013250A
:20109F0074C3F090132674BAF090132774FAF090132874B9F0901329741BF090132A745235
:2010BF00F090132B746CF090132C74BDF090132D74E0F090132E7488F090132F7423F090D9
:2010DF00133074DAF09013317468F0901332748FF0901333741EF0901334744AF090133553
:2010FF007414F09013367476F09013377480F09013387456F090133974E1F090133A74AF32
:20111F00F090133B74E2F090133C74CCF090133D7466F090133E74C3F090133F74F6F0900F
:20113F0013407497F0901341741BF090134274E5F09013437430F0901344744FF0901345B5
:20115F0074E1F09013467445F090134774A9F090134874DBF09013497483F090134A7471D3
:20117F00F090134B74CAF090134C747BF090134D741FF090134E7455F090134F74D2F090A1
:20119F0013507413F090135174A7F0901352745FF090135374B2F09013547476F0901355CA
:2011BF007475F090135674FDF090135774D8F090135874C7F090135974ABF090135A74D134
:2011DF00F090135B74B0F090135C744DF090135D7469F090135E7454F090135F74D6F090EC
:2011FF00136074FEF090136174DEF090136274F8F09013637406F0901364747AF0901365F7
:20121F0074FEF09013667466F09013677418F09013687401F09013697407F090136A746527
:20123F00F090136B74E6F090136C7492F090136D746DF090136E7478F090136F7497F090D7
:20125F00137074F1F090137174BAF0901372744FF09013737430F09013747426F09013753A
:20127F0074C2F0901376745AF090137774C9F090137874D3F09013797467F090137A742C15
:20129F00F090137B74F1F090137C7429F090137D744BF090137E742CF090137F742EF0905C
:2012BF001380E4F0901381F0901382F0901383F0901384E4F0901385F0901386F090138713
:2012DF00F0901388E4F0901389F090138AF090138BF090138CE4F090138DF090138EF090D5
:2012FF00138FF0901390E4F0901391F0901392F0901393F0901394E4F0901395F09013965B
:20131F00F0901397F0901398E4F0901399F090139AF090139BF090139CE4F090139DF0902B
:20133F00139EF090139FF09013A0E4F09013A1F09013A2F09013A3F09013A4E4F09013A5A2
:20135F00F09013A6F09013A7F09013A8E4F09013A9F09013AAF09013ABF09013ACE4F09082
:20137F0013ADF09013AEF09013AFF09013B0E4F09013B1F09013B2F09013B3F09013B4E4EA
:20139F00F09013B5F09013B6F09013B7F09013B8E4F09013B9F09013BAF09013BBF09013AA
:2013BF00BCE4F09013BDF09013BEF09013BFF09013C0E4F09013C1F09013C2F09013C3F055
:2013DF009013C4E4F09013C5F09013C6F09013C7F09013C8E4F09013C9F09013CAF090130D
:2013FF00CBF09013CCE4F09013CDF09013CEF09013CFF09013D0E4F09013D1F09013D2F09D
:20141F009013D3F09013D4E4F09013D5F09013D6F09013D7F09013D8E4F09013D9F0901363
:20143F00DAF09013DBF09013DCE4F09013DDF09013DEF09013DFF09013E0E4F09013E1F0E4
:20145F009013E2F09013E3F09013E4E4F09013E5F09013E6F09013E7F09013E8E4F09013BA
:20147F00E9F09013EAF09013EBF09013ECE4F09013EDF09013EEF09013EFF09013F0E4F02C
:20149F009013F1F09013F2F09013F3F09013F4E4F09013F5F09013F6F09013F7F09013F8FD
:2014BF00E4F09013F9F09013FAF09013FBF09013FCE4F09013FDF09013FEF09013FFF090DC
:2014DF001400E4F0901401F0901402F0901403F0901404E4F0901405F0901406F0901407E9
:2014FF00F0901408E4F0901409F090140AF090140BF090140CE4F090140DF090140EF0902C
:20151F00140FF0901410E4F0901411F0901412F0901413F0901414E4F0901415F090141630
:20153F00F0901417F0901418E4F0901419F090141AF090141BF090141CE4F090141DF09082
:20155F00141EF090141FF0901420E4F0901421F0901422F0901423F0901424E4F090142578
:20157F00F0901426F0901427F0901428E4F0901429F090142AF090142BF090142CE4F090D9
:20159F00142DF090142EF090142FF0901430E4F0901431F0901432F0901433F0901434E4C0
:2015BF00F0901435F0901436F0901437F0901438E4F0901439F090143AF090143BF0901400
:2015DF003CE4F090143DF090143EF090143FF0901440E4F0901441F0901442F0901443F02C
:2015FF00901444E4F0901445F0901446F0901447F0901448E4F0901449F090144AF0901463
:20161F004BF090144CE4F090144DF090144EF090144FF0901450E4F0901451F0901452F073
:20163F00901453F0901454E4F0901455F0901456F0901457F0901458E4F0901459F09014B9
:20165F005AF090145BF090145CE4F090145DF090145EF090145FF0901460E4F0901461F0BB
:20167F00901462F0901463F0901464E4F0901465F0901466F0901467F0901468E4F0901410
:20169F0069F090146AF090146BF090146CE4F090146DF090146EF090146FF0901470E4F003
:2016BF00901471F0901472F0901473F0901474E4F0901475F0901476F0901477F0901478D3
:2016DF00E4F0901479F090147AF090147BF090147CE4F090147DF090147EF090147FF09033
:2016FF001480E4F0901481F0901482F0901483F0901484E4F0901485F0901486F0901487C7
:20171F00F0901488E4F0901489F090148AF090148BF090148CE4F090148DF090148EF09089
:20173F00148FF0901490E4F0901491F0901492F0901493F0901494E4F0901495F09014960E
:20175F00F0901497F0901498E4F0901499F090149AF090149BF090149CE4F090149DF090E0
:20177F00149EF090149FF09014A0E4F09014A1F09014A2F09014A3F09014A4E4F09014A556
:20179F00F09014A6F09014A7F09014A8E4F09014A9F09014AAF09014ABF09014ACE4F09037
:2017BF0014ADF09014AEF09014AFF09014B0E4F09014B1F09014B2F09014B3F09014B4E49E
:2017DF00F09014B5F09014B6F09014B7F09014B8E4F09014B9F09014BAF09014BBF090145E
:2017FF00BCE4F09014BDF09014BEF09014BFF09014C0E4F09014C1F09014C2F09014C3F00A
:20181F009014C4E4F09014C5F09014C6F09014C7F09014C8E4F09014C9F09014CAF09014C0
:20183F00CBF09014CCE4F09014CDF09014CEF09014CFF09014D0E4F09014D1F09014D2F051
:20185F009014D3F09014D4E4F09014D5F09014D6F09014D7F09014D8E4F09014D9F0901417
:20187F00DAF09014DBF09014DCE4F09014DDF09014DEF09014DFF09014E0E4F09014E1F099
:20189F009014E2F09014E3F09014E4E4F09014E5F09014E6F09014E7F09014E8E4F090146E
:2018BF00E9F09014EAF09014EBF09014ECE4F09014EDF09014EEF09014EFF09014F0E4F0E1
:2018DF009014F1F09014F2F09014F3F09014F4E4F09014F5F09014F6F09014F7F09014F8B1
:2018FF00E4F09014F9F09014FAF09014FBF09014FCE4F09014FDF09014FEF09014FFF09091
:20191F0001007401F09001017401F0900102E4F0900103F0900104F0900105F0900106E4DA
:20193F00F0900107F0900108F0900109F090010AE4F090010BF090010CF090010DF0900156
:20195F000EE4F090010FF0900110F0900111F0900112E4F0900113F0900114F0900115F09D
:20197F00900116E4F0900117F0900118F0900119F090011AE4F090011BF090011CF09001B9
:20199F001DF090011EE4F090011FF0900120F0900121F0900122E4F0900123F0900124F0E5
:2019BF00900125F0900126E4F0900127F0900128F0900129F090012AE4F090012BF0900110
:2019DF002CF090012DF090012EE4F090012FF0900130F0900131F0900132E4F0900133F02D
:2019FF00900134F0900135F0900136E4F0900137F0900138F0900139F090013AE4F0900167
:201A1F003BF090013CF090013DF090013EE4F090013FF0900140F0900141F0900142E4F074
:201A3F00900143F0900144F0900145F0900146E4F0900147F0900148F0900149F090014A57
:201A5F00E4F090014BF090014CF090014DF090014EE4F090014FF0900150F0900151F09076
:201A7F000152E4F0900153F0900154F0900155F0900156E4F0900157F0900158F09001594B
:201A9F00F090015AE4F090015BF090015CF090015DF090015EE4F090015FF0900160F090CD
:201ABF000161F0900162E4F0900163F0900164F0900165F0900166E4F0900167F090016893
:201ADF00F0900169F090016AE4F090016BF090016CF090016DF090016EE4F090016FF09024
:201AFF000170F0900171F0900172E4F0900173F0900174F0900175F0900176E4F0900177DB
:201B1F00F0900178F0900179F090017AE4F090017BF090017CF090017DF090017EE4F0907A
:201B3F00017FF0900180F0900181F0900182E4F0900183F0900184F0900185F0900186E422
:201B5F00F0900187F0900188F0900189F090018AE4F090018BF090018CF090018DF09001B4
:201B7F008EE4F090018FF0900190F0900191F0900192E4F0900193F0900194F0900195F07B
:201B9F00900196E4F0900197F0900198F0900199F090019AE4F090019BF090019CF0900117
:201BBF009DF090019EE4F090019FF09001A0F09001A1F09001A2E4F09001A3F09001A4F0C3
:201BDF009001A5F09001A6E4F09001A7F09001A8F09001A9F09001AAE4F09001ABF090016E
:201BFF00ACF09001ADF09001AEE4F09001AFF09001B0F09001B1F09001B2E4F09001B3F00B
:201C1F009001B4F09001B5F09001B6E4F09001B7F09001B8F09001B9F09001BAE4F09001C4
:201C3F00BBF09001BCF09001BDF09001BEE4F09001BFF09001C0F09001C1F09001C2E4F052
:201C5F009001C3F09001C4F09001C5F09001C6E4F09001C7F09001C8F09001C9F09001CA35
:201C7F00E4F09001CBF09001CCF09001CDF09001CEE4F09001CFF09001D0F09001D1F090D4
:201C9F0001D2E4F09001D3F09001D4F09001D5F09001D6E4F09001D7F09001D8F09001D929
:201CBF00F09001DAE4F09001DBF09001DCF09001DDF09001DEE4F09001DFF09001E0F0902B
:201CDF0001E1F09001E2E4F09001E3F09001E4F09001E5F09001E6E4F09001E7F09001E871
:201CFF00F09001E9F09001EAE4F09001EBF09001ECF09001EDF09001EEE4F09001EFF09082
:201D1F0001F0F09001F1F09001F2E4F09001F3F09001F4F09001F5F09001F6E4F09001F7B8
:201D3F00F09001F8F09001F9F09001FAE4F09001FBF09001FCF09001FDF09001FEE4F090D8
:201D5F0001FFF09002007401F0900201740FF090020274ECF0900203744AF090020474DD69
:201D7F00F09002057426F09002067457F0900207747DF09002087477F09002097431F09031
:201D9F00020A7493F090020B74E1F090020C74CFF090020D7405F090020E74C5F090020FFC
:201DBF007406F090021074E4F0900211740FF09002127404F090021374F9F090021474086A
:201DDF00F09002157457F0900216740CF09002177473F09002187421F090021974A9F09083
:201DFF00021A7473F090021B74FBF090021C74A8F090021D743FF090021E7453F090021FA1
:201E1F007443F0900220741FF0900221747FF0900222744CF090022374C7F090022474D8EB
:201E3F00F090022574B2F090022674FEF0900227746EF090022874C1F09002297472F09021
:201E5F00022A7440F090022B74F5F090022C746CF090022D74A8F090022E7468F090022FD7
:201E7F007413F09002307487F0900231748BF09002327436F09002337421F0900234747417
:201E9F00F09002357459F09002367444F09002377466F090023874BFF090023974C7F09039
:201EBF00023A7449F090023B7424F090023C7496F090023D74C4F090023E74FAF090023F07
:201EDF00740CF0900240748AF090024174F3F09002427484F090024374CEF090024474DCA0
:201EFF00F090024574D0F0900246745CF09002477461F0900248749BF0900249742EF090BC
:201F1F00024A749CF090024B7451F090024C74E9F090024D745DF090024E74FAF090024FDA
:201F3F007484F09002507465F09002517477F0900252744DF090025374F1F0900254749078
:201F5F00F09002557402F09002567421F09002577401F09002587411F0900259748AF090A2
:201F7F00025A74FEF090025B7455F090025C746AF090025D74D3F090025E748EF090025F29
:201F9F0074B8F09002607457F09002617476F090026274EDF090026374B0F090026474A232
:201FBF00F09002657472F090026674EBF090026774BEF09002687431F0900269746CF090F9
:201FDF00026A740DF090026B7459F090026C749EF090026D7463F090026E7406F090026F1A
:201FFF0074B1F09002707418F090027174AEF090027274F5F09002737465F09002747483F2
:20201F00F090027574DEF0900276742AF090027774D2F09002787498F090027974B9F090D5
:20203F00027A74D8F090027B74F6F090027C74BDF090027D7425F090027E746EF090027FA8
:06205F00740BF002000307
:0300030002206573
:20206500758001E5B060FC758000758005E5B060FC7580007E087F00758055E5B060FC75EA
:2020850080007508087509008E828F83C007C006122253AC82AD83D006D0078C8274012DC7
:2020A500F583E0FD7508087509008E828F83C007C006C00512221DAB82AC83D005D006D027
:2020C500078BF005F0ED8002C313D5F0FB30E00A758065E5B060FC7580001EBEFF011FEF3B
:2020E50030E795758075E5B060FC758000758009E5B060FC75800075800DE5B060FC758013
:20210500007E007F008E0474122FFD8E8274142FF583E0FB8C828D83F00EBE00010FC3EFC3
:202125006480948140DF758001E5B060FC758000758005E5B060FC7580007E7F7F007C07C7
:202145007D00758055E5B060FC7580008E8274022FF583E0FB8CF005F0EB8002C313D5F04C
:20216500FB30E00A758065E5B060FC7580001CBCFF011DED30E7CB1EBEFF011FEF30E7BE82
:20218500758075E5B060FC758000758009E5B060FC75800075800DE5B060FC75800075B0F9
:0221A5005522C1
:06003500E478FFF6D8FD9F
:200013007900E94400601B7A0090228F780075A000E493F2A308B8000205A0D9F4DAF275E3
:02003300A0FF2C
:2021A700E508450960467A01E50825E0F508E509334012F509E5829508E583950940030A05
:2021C70080E6C3E50913F509E50813F508C3E5829508F5F0E58395094005F58385F082C3AA
:0D21E700E50913F509E50813F508DAE12212
:20003B007800E84400600A790075A000E4F309D8FC7800E84400600C7900900000E4F0A3C5
:04005B00D8FCD9FAFA
:2021F4007A10E4FBFCE58225E0F582E58333F583EB33FBEC33FCEB9508F5F0EC95094006FF
:09221400FCABF0438201DADD228B
:0D00060075810912228BE582600302000360
:20221D00C2D5E58330E70DD2D5E4C39582F582E49583F583E50930E70BE4C39508F508E4F9
:16223D009509F5091221A730D50BE4C39582F582E49583F583223A
:20225300C2D5E58330E70DD2D5E4C39582F582E49583F583E50930E70DB2D5E4C39508F526
:1822730008E49509F5091221F430D50BE4C39582F582E49583F58322C9
:04228B007582002236
:00000001FF
